:02000004080AE8
:1000000000000A0818270A0800000500060005017C
:080010000402EA0300000000F5
:10001800DC230A0809480A4908B5884205D0094A74
:10002800824202D0121A02F091F90748074A0021C9
:10003800121A02F096F9064808BD00BF0003002016
:1000480084260A08680300206803002000090020AD
:100058000009002070B501F031FF074B074C1E4620
:10006800E41AA4080025A54204D056F8253098477C
:100078000135F8E770BD00BF40260A0874260A0853
:1000880000F0DCB808B501F0A7FEBDE8084001F0B3
:10009800D7BE01F0F5BB0078B0FA80F04009704790
:1000A80001230370704708B5002240F20B2102209B
:1000B80001F032FD962001F0EBFB002240F2932183
:1000C800022001F029FD962001F0E2FB00224FF406
:1000D8004471022001F020FD962001F0D9FB002296
:1000E8004FF45C71022001F017FD4FF4967001F097
:1000F800CFFB002240F29321022001F00DFD962053
:1001080001F0C6FB00224FF45C71022001F004FDEF
:100118004FF4167001F0BCFBBDE80840022001F066
:1001280012BD542809D8A0EB8001013900EB40002A
:100138000022C9B2C0B201F02EBAA9280BD855388E
:10014800C0B200EB4002A0EB80000138D2B200211F
:10015800C0B201F020BA5630C1B2A1EB8102013A17
:1001680001EB4101D2B2C9B2002001F014BA00007B
:1001780070B50646002500240E4801F011FA8442A5
:100188000BD26019C0B2FFF7CCFF214602460134FA
:10019800084801F0B5F9A4B2EEE70648013500F0C9
:1001A800F5F8ADB2304601F073FBB5F5807FE2D1CA
:1001B80070BD00BF6C030020F8B507460E4600244A
:1001C8000A4801F0EDF9A5B2854204F1010405D20F
:1001D8003A462946054801F093F9F1E7034800F04B
:1001E800D5F83046BDE8F84001F052BB6C0300205A
:1001F800FF2210B51146104601F0CDF90021FFF796
:10020800DBFFFFF750FF0520FFF7B2FF0520FFF7E0
:10021800AFFF0520FFF7ACFF074C0520FFF7A8FF4D
:100228000520FFF7A5FF204601F0BCF92046BDE8F0
:10023800104000F0ABB800BF6C03002013B50B4CA6
:100248000121022001F0A2FE204600F069F82046B4
:1002580000F09CF8FFF7CCFF0023019300931A46A7
:100268000349044801F0ECFA02B010BD6C03002009
:1002780081020A08F0230A08FFF7BABF10B501F097
:10028800C9F901F047FE00231A4642F2E84101F09D
:1002980049FE0A4C01F03EFE00231A46022101F0F5
:1002A80049FE032218212046022300F05EF820466A
:1002B800BDE81040024A034901F0ECBE6C0300207F
:1002C80068030020D5020A0801F094B910B5044665
:1002D800C06808B101F0D4FA23781BB10021E07995
:1002E80001F054FE204610BD38B50446C0680D46DE
:1002F80008B101F0C5FAA379062B0CBF042003202E
:10030800684380B2A08001F0B3FAE06028B1A28807
:10031800002102F026F8658038BDA080608038BDD5
:1003280010B504460121C07901F030FE0021E079C2
:1003380001F03DFE0123237010BD38B50378054652
:100348000C461BB10021C07901F020FE2B78EC711E
:1003580053B1A4B22046012101F018FE2046BDE8A1
:100368003840002101F023BE38BD70B5044616465A
:100378000025837105700572C5600561FFF7B4FF3C
:1003880020463146FFF7D9FF204670BDC368002BD1
:1003980000F08E852DE9F0410446837986B0023B52
:1003A800DBB2042B96BF294A322552F82350FFF7B7
:1003B8008BFF2369C01AA842F9D372B6A179A38822
:1003C8000229ADF80A30D4F80CE000F0728207294F
:1003D80000F06F82062900F03284052900F0AB8313
:1003E800082900F0A883002940F06385184A4FF4D3
:1003F8000006BDF80A309BB2002B00F095830496E6
:10040800BDF80A300EF10305033B9BB2ADF80A3084
:100418009EF80030DBB28DF807309EF80130DBB271
:100428008DF806309EF80230DBB28DF808309DF862
:1004380007709DF806309DF808001B0243EA074341
:10044800034303938DF805101BE100BF00240A083D
:1004580080030020004600BF00BF00BF00BF00BFF0
:1004680000BF00BF00BF00BF00BF00BF00BF00BF8C
:1004780000BF00BF00BF00BF00BF00BF00BF00BF7C
:1004880000BF00BF00BF00BF00BF00BF00BF00BF6C
:1004980000BF00BF00BF00BF00BF00BF00BF00BF5C
:1004A80000BF00BF00BF00BF00BF00BF00BF00BF4C
:1004B80000BF00BF00BF00BF00BF00BF00BF00BF3C
:1004C80000BF00BF00BF00BF00BF00BF00BF00BF2C
:1004D80000BF00BF00BF00BF00BF00BF00BF00BF1C
:1004E80000BF00BF00BF00BF00BF00BF00BF00BF0C
:1004F80000BF00BF00BF00BF00BF00BF00BF00BFFC
:1005080000BF00BF00BF00BF00BF00BF00BF00BFEB
:1005180000BF00BF00BF00BF00BF00BF00BF00BFDB
:1005280000BF00BF00BF00BF00BF00BF00BF00BFCB
:1005380000BF00BF00BF00BF00BF00BF00BF00BFBB
:1005480000BF00BF00BF00BF00BF00BF00BF00BFAB
:1005580000BF00BF00BF00BF00BF00BFE379106845
:10056800C3EBC30300EB8307BF8850F823305F83D6
:10057800004600BF00BF00BF00BF00BF00BF00BFF4
:1005880000BF00BF00BF00BF00BF00BF00BF00BF6B
:1005980000BF00BF00BF00BF00BF00BF00BF00BF5B
:1005A80000BF00BF00BF00BF00BF00BF00BF00BF4B
:1005B80000BF00BF00BF00BF00BF00BF00BF00BF3B
:1005C80000BF00BF00BF00BF00BF00BF00BF00BF2B
:1005D80000BF00BF00BF00BF00BF00BF00BF00BF1B
:1005E80000BF00BF00BF00BF00BF00BF00BF00BF0B
:1005F80000BF00BF00BF00BF00BF00BF00BF00BFFB
:1006080000BF00BF00BF00BF00BF00BF00BF00BFEA
:1006180000BF00BF00BF00BF00BF00BF00BF00BFDA
:1006280000BF00BF00BF00BF00BF00BF00BF00BFCA
:1006380000BF00BF00BF00BF00BF00BF00BF00BFBA
:1006480000BF00BF00BF00BF00BF00BF00BF00BFAA
:1006580000BF00BF00BF00BF00BF00BF00BF00BF9A
:1006680000BF00BF00BF00BF00BF049B5B0804932E
:100678009DF805300133DBB2172B8DF8053000F2F9
:10068800DB82E3791068C3EBC30300EB8307BF8801
:1006980050F823301F830398049B18427FF4DAAE86
:1006A800004600BF00BF00BF00BF00BF00BF00BFC3
:1006B80000BF00BF00BF00BF00BF00BF00BF00BF3A
:1006C80000BF00BF00BF00BF00BF00BF00BF00BF2A
:1006D80000BF00BF00BF00BF00BF00BF00BF00BF1A
:1006E80000BF00BF00BF00BF00BF00BF00BF00BF0A
:1006F80000BFE3791068C3EBC30300EB8307BF882F
:1007080050F823305F83004600BF00BF00BF00BF22
:1007180000BF00BF00BF00BF00BF00BF00BF00BFD9
:1007280000BF00BF00BF00BF00BF00BF00BF00BFC9
:1007380000BF00BF00BF00BF00BF00BF00BF00BFB9
:1007480000BF00BF00BF00BF00BF00BF00BF00BFA9
:1007580000BF00BF00BF00BF00BF00BF00BF00BF99
:1007680000BF00BF00BF00BF00BF00BF00BF00BF89
:1007780000BF00BF00BF00BF00BF00BF00BF00BF79
:1007880000BF00BF00BF00BF00BF00BF00BF00BF69
:1007980000BF00BF00BF00BF00BF00BF00BF00BF59
:1007A80000BF00BF00BF00BF00BF00BF00BF00BF49
:1007B80000BF00BF00BF00BF00BF00BF00BF00BF39
:1007C80000BF00BF00BF00BF00BF00BF00BF00BF29
:1007D80000BF00BF00BF00BF00BF00BF00BF00BF19
:1007E80000BF00BF00BF00BF00BF00BF00BF00BF09
:1007F80000BF00BF00BF00BF00BF00BF00BF00BFF9
:1008080000BF00BF00BF00BF00BF00BF00BF00BFE8
:1008180000BF00BF00BF00BF00BF00BF00BF00BFD8
:1008280000BF00BF00BF00BF00BF00BF00BF00BFC8
:1008380000BF00BF00BF00BF00BF00BF00BF00BFB8
:1008480000BF00BF00BF00BF00BF00BF00BF00BFA8
:1008580000BF00BF00BF00BF00BF00BF00BF00BF98
:1008680000BF00BF00BF00BF00BF00BF00BF00BF88
:1008780000BF00BF00BF00BF00BF00BF00BF00BF78
:1008880000BF00BF00BF00BF00BF00BF00BF00BF68
:1008980000BF00BF00BF00BF00BF00BF00BF00BF58
:1008A80000BF00BF00BF00BF00BF00BF00BF00BF48
:1008B800DBE6BDF80A30174A9BB24FF40005002664
:1008C800002B00F031810495BDF80A300EF10301C8
:1008D800033B9BB2ADF80A309EF80030DBB28DF8CE
:1008E80006309EF80130DBB28DF807309EF80230F2
:1008F800DBB28DF808309DF806309DF807009DF8AA
:100908000870000240EA03433B4303938DF80560F7
:1009180080E000BF80030020004600BF00BF00BF8A
:1009280000BF00BF00BF00BF00BF00BF00BF00BFC7
:1009380000BF00BF00BF00BF00BF00BF00BF00BFB7
:1009480000BF00BF00BF00BF00BF00BF00BF00BFA7
:1009580000BF00BF00BF00BF00BF00BF00BF00BF97
:1009680000BF00BF00BF00BF00BF00BF00BF00BF87
:1009780000BF00BF00BF00BF00BF00BF00BF00BF77
:1009880000BF00BF00BF00BF00BF00BF00BF00BF67
:1009980000BF00BF00BF00BF00BF00BF00BF00BF57
:1009A80000BF00BF00BF00BF00BF00BF00BF00BF47
:1009B80000BFE3791068C3EBC30300EB8307BF886C
:1009C80050F823305F83004600BF00BF00BF00BF60
:1009D80000BF00BF00BF00BF00BF00BF00BF00BF17
:1009E80000BF00BF00BF00BF00BF00BF00BF00BF07
:1009F80000BF00BF00BF00BF00BF00BF049B5B0873
:100A080004939DF805300133DBB2172B8DF80530C0
:100A180000F28380E3791068C3EBC30300EB83071C
:100A2800BF8850F823301F830398049B18427FF433
:100A380073AF004600BF00BF00BF00BF00BF00BFCC
:100A480000BF00BF00BF00BF00BF00BF00BF00BFA6
:100A580000BF00BF00BF00BF00BFE3791068C3EB51
:100A6800C30300EB8307BF8850F823305F83004639
:100A780000BF00BF00BF00BF00BF00BF00BF00BF76
:100A880000BF00BF00BF00BF00BF00BF00BF00BF66
:100A980000BF00BF00BF00BF00BF00BF00BF00BF56
:100AA80000BF00BF00BF00BF00BF00BF00BF00BF46
:100AB80000BF00BF00BF00BF00BF00BF00BF00BF36
:100AC80000BF00BF00BF00BF00BF00BF00BF00BF26
:100AD80000BF00BF00BF00BF00BF00BF00BF00BF16
:100AE80000BF00BF00BF00BF00BF00BF00BF00BF06
:100AF80000BF00BF00BF00BF00BF00BF00BF00BFF6
:100B080000BF00BF00BF00BF00BF00BF00BF00BFE5
:100B180000BF00BF00BF00BF70E7BDF80A308E46B7
:100B28009BB2002B7FF4CFAE62B6FFF7CDFB2061FE
:100B380006B0BDE8F0815E4B5E4A184611684FF476
:100B480000080027BDF80A2092B2002AECD0CDF8A0
:100B58001080BDF80A200EF10305033A92B2ADF8F1
:100B68000A209EF80020D2B28DF806209EF80120B7
:100B7800D2B28DF807209EF80220D2B28DF8082054
:100B88009DF806209DF807E09DF808C04FEA0E2E54
:100B98004EEA024242EA0C0203928DF80570E279AD
:100BA8005E68C2EBC20201EB820EBEF804E051F8A7
:100BB80022200596A2F818E0039E049A164223D034
:100BC8005A68059E921B4F2AFAD9E279C2EBC202F3
:100BD80001EB820EBEF804E051F82220A2F81AE0D8
:100BE800426805925A68059E921B072AFAD9049A08
:100BF800520804929DF805200132D2B2172A8DF8C6
:100C08000520CCD9AE469DE75A68059E921B182A46
:100C1800FAD9E279C2EBC20201EB820EBEF804E017
:100C280051F82220A2F81AE0426805925A68059EF7
:100C3800921B452AFAD9DAE7AE46FFF7DABB1D4A16
:100C48004FF000450026BDF80A309BB2002B3FF458
:100C58006BAF0495BDF80A300EF10401043B9BB25A
:100C6800ADF80A309EF80030DBB28DF807309EF8F8
:100C78000130DBB28DF806309EF80230DBB28DF819
:100C880008309EF80330DBB28DF809309DF8073044
:100C98009DF806709DF808E03F049DF8090047EAB2
:100CA8000363034343EA0E2303938DF805607EE054
:100CB800001000E080030020004600BF00BF00BF16
:100CC80000BF00BF00BF00BF00BF00BF00BF00BF24
:100CD80000BF00BF00BF00BF00BF00BF00BF00BF14
:100CE80000BF00BF00BF00BF00BF00BF00BF00BF04
:100CF80000BF00BF00BF00BF00BF00BF00BF00BFF4
:100D080000BF00BF00BF00BF00BF00BF00BF00BFE3
:100D180000BF00BF00BF00BF00BF00BF00BF00BFD3
:100D280000BF00BF00BFE3791068C3EBC30300EB4B
:100D38008307BF8850F823305F83004600BF00BF99
:100D480000BF00BF00BF00BF00BF00BF00BF00BFA3
:100D580000BF00BF00BF00BF00BF00BF00BF00BF93
:100D680000BF00BF00BF00BF00BF00BF00BF00BF83
:100D780000BF00BF00BF00BF00BF00BF00BF00BF73
:100D880000BF00BF00BF00BF00BF00BF00BF00BF63
:100D980000BF00BF00BF00BF049B5B0804939DF821
:100DA80005300133DBB21F2B8DF805307ED8E3798F
:100DB8001068C3EBC30300EB8307BF8850F82330E8
:100DC8001F830398049B18427FF476AF004600BF48
:100DD80000BF00BF00BF00BF00BF00BF00BF00BF13
:100DE80000BF00BF00BF00BF00BF00BF00BF00BF03
:100DF80000BF00BFE3791068C3EBC30300EB8307B0
:100E0800BF8850F823305F83004600BF00BF00BF93
:100E180000BF00BF00BF00BF00BF00BF00BF00BFD2
:100E280000BF00BF00BF00BF00BF00BF00BF00BFC2
:100E380000BF00BF00BF00BF00BF00BF00BF00BFB2
:100E480000BF00BF00BF00BF00BF00BF00BF00BFA2
:100E580000BF00BF00BF00BF00BF00BF00BF00BF92
:100E680000BF00BF00BF00BF00BF00BF00BF00BF82
:100E780000BF00BF00BF00BF00BF00BF00BF00BF72
:100E880000BF00BF00BF00BF00BF00BF00BF00BF62
:100E980000BF00BF00BF00BF00BF00BF00BF00BF52
:100EA80000BF00BF00BF00BF00BF75E78E46CAE69F
:100EB8007047032900F02E811E4A4FF400050026D2
:100EC800BDF80A309BB2002B3FF42EAE0495BDF856
:100ED8000A30E079033B9BB2ADF80A309EF8003047
:100EE8000EF10301DBB28DF807309EF80130C0EB3C
:100EF800C000DBB28DF808309EF80230D2F800E06E
:100F0800DBB28DF806309DF807709DF808300EEBBF
:100F1800800C1B0243EA07439DF80670BCF804C026
:100F28005EF820003B4303938DF80560A0F81AC0D3
:100F38007DE000BF80030020049B5B08049300460B
:100F480000BF00BF00BF00BF00BF00BF00BF00BFA1
:100F580000BF00BF00BF00BF00BF00BF00BF00BF91
:100F680000BF00BF00BF00BF00BF00BF00BF00BF81
:100F780000BF00BF00BF00BF00BF00BF00BF00BF71
:100F880000BF00BF00BF00BF00BF00BF00BF00BF61
:100F980000BF00BF00BF00BF00BF00BF00BF00BF51
:100FA80000BF00BF00BF00BF00BF00BF00BF00BF41
:100FB80000BF00BF00BF00BF00BF00BF00BF00BF31
:100FC80000BF00BFE07917689DF80530C0EBC0008E
:100FD80007EB800EBEF804E057F820000133DBB2BF
:100FE8008DF80530A0F818E0004600BF00BF00BF2C
:100FF80000BF00BF00BF00BF00BF00BF00BF00BFF1
:1010080000BF00BF00BF00BF00BF00BF00BF00BFE0
:1010180000BF9DF80530182B7AD0E3791068C3EB30
:10102800C30300EB8307BF8850F823305F8303981E
:10103800049B184280D1004600BF00BF00BF00BF1C
:1010480000BF00BF00BF00BF00BF00BF00BF00BFA0
:1010580000BF00BF00BF00BFE3791068C3EBC30344
:1010680000EB8307BF8850F823301F839DF80530B5
:101078000133DBB28DF80530049B5B08049300460E
:1010880000BF00BF00BF00BF00BF00BF00BF00BF60
:1010980000BF00BF00BF00BF00BF00BF00BF00BF50
:1010A80000BF00BF00BF00BF00BF00BF00BF00BF40
:1010B80000BF00BF00BF00BF00BF00BF00BF00BF30
:1010C80000BF00BF00BF00BF00BF00BF00BF00BF20
:1010D80000BF00BF00BF00BF00BF00BF00BF00BF10
:1010E80000BF00BF00BF00BF00BF00BF00BF00BF00
:1010F80000BF00BF00BF00BF00BF00BF00BF00BFF0
:1011080000BF00BF00BF00BF9DF80530182B84D179
:101118008E46D5E6174A4FF400050026BDF80A307A
:101128009BB2002B3FF400AD0495BDF80A300EF1D8
:101138000301033B9BB2ADF80A309EF80030DBB2E6
:101148008DF807309EF80130DBB28DF806309EF836
:101158000230DBB28DF808309DF807709DF8063034
:101168009DF808001B0243EA0743034303938DF8E5
:101178000560E0E080030020004600BF00BF00BF1C
:1011880000BF00BF00BF00BF00BF00BF00BF00BF5F
:1011980000BF00BF00BF00BF00BF00BF00BF00BF4F
:1011A80000BF00BF00BF00BF00BF00BF00BF00BF3F
:1011B80000BF00BF00BF00BF00BF00BF00BF00BF2F
:1011C80000BF00BF00BF00BF00BF00BF00BF00BF1F
:1011D80000BF00BF00BF00BF00BF00BF00BF00BF0F
:1011E80000BF00BF00BF00BF00BF00BF00BF00BFFF
:1011F80000BF00BF00BF00BF00BF00BF00BF00BFEF
:1012080000BF00BF00BF00BF00BF00BF00BF00BFDE
:1012180000BF00BF00BF00BF00BF00BF00BF00BFCE
:1012280000BF00BF00BF00BF00BF00BF00BF00BFBE
:1012380000BF00BF00BF00BF00BF00BF00BF00BFAE
:1012480000BF00BF00BF00BF00BF00BF00BF00BF9E
:1012580000BF00BF00BF00BF00BF00BF00BF00BF8E
:1012680000BF00BF00BF00BF00BF00BF00BF00BF7E
:1012780000BF00BF00BF00BF00BF00BF00BF00BF6E
:1012880000BF00BF00BF00BF00BF00BF00BF00BF5E
:1012980000BF00BF00BF00BF00BFE3791068C3EB09
:1012A800C30300EB8307BF8850F823305F830046F1
:1012B80000BF00BF00BF00BF00BF00BF00BF00BF2E
:1012C80000BF00BF00BF00BF00BF00BF00BF00BF1E
:1012D80000BF00BF00BF00BF00BF00BF00BF00BF0E
:1012E80000BF00BF00BF00BF00BF00BF00BF00BFFE
:1012F80000BF00BF00BF00BF00BF00BF00BF00BFEE
:1013080000BF00BF00BF00BF00BF00BF00BF00BFDD
:1013180000BF00BF00BF00BF00BF00BF00BF049BED
:101328005B0804939DF805300133DBB2172B8DF869
:10133800053000F2E380E3791068C3EBC30300EBE8
:101348008307BF8850F823301F830398049B1842F3
:101358007FF412AF004600BF00BF00BF00BF00BF50
:1013680000BF00BF00BF00BF00BF00BF00BF00BF7D
:1013780000BF00BF00BF00BF00BF00BF00BF00BF6D
:1013880000BF00BF00BF00BF00BF00BF00BF00BF5D
:1013980000BF00BF00BF00BF00BF00BF00BF00BF4D
:1013A80000BF00BF00BF00BF00BF00BF00BF00BF3D
:1013B80000BF00BF00BF00BF00BF00BF00BF00BF2D
:1013C80000BF00BF00BF00BF00BF00BF00BF00BF1D
:1013D80000BF00BF00BFE3791068C3EBC30300EB95
:1013E8008307BF8850F823305F83004600BF00BFE3
:1013F80000BF00BF00BF00BF00BF00BF00BF00BFED
:1014080000BF00BF00BF00BF00BF00BF00BF00BFDC
:1014180000BF00BF00BF00BF00BF00BF00BF00BFCC
:1014280000BF00BF00BF00BF00BF00BF00BF00BFBC
:1014380000BF00BF00BF00BF00BF00BF00BF00BFAC
:1014480000BF00BF00BF00BF00BF00BF00BF00BF9C
:1014580000BF00BF00BF00BF00BF00BF00BF00BF8C
:1014680000BF00BF00BF00BF00BF00BF00BF00BF7C
:1014780000BF00BF00BF00BF00BF00BF00BF00BF6C
:1014880000BF00BF00BF00BF00BF00BF00BF00BF5C
:1014980000BF00BF00BF00BF00BF00BF00BF00BF4C
:1014A80000BF00BF00BF00BF00BF00BF00BF00BF3C
:1014B80000BF00BF00BF00BF00BF00BF00BF00BF2C
:1014C80000BF00BF00BF00BF00BF00BF00BF00BF1C
:1014D80000BF00BF00BF00BF00BF00BF00BF00BF0C
:1014E80000BF00BF00BF00BF00BF00BF00BF00BFFC
:1014F80000BF00BF00BF00BF00BF10E78E460DE66B
:101508004388F0B58B4245D9057AC2F30743C2F345
:101518000724D6B245B16B436C436E43C3F307232C
:10152800C4F30724C6F3072690F806C0C768BCF1C1
:10153800060F0CBF042503256943BCF1080F07EB10
:10154800010524D84FF0010E0EFA0CFE1EF4D27FCE
:101558000CD11EF0400F0DD11EF0100F17D0FF2B2D
:1015680008BFFE237B546E70AC70F0BD7C546B706A
:10157800AE70F0BD7B546C70AE70037A120E0BB96E
:10158800D2B202E05A43C2F30722EA70F0BD7B549C
:101598006C70AE70F0BD42EA012242EA004070472A
:1015A8004088704782880021C06800F0DABE0000D9
:1015B80008B500F02FF800F02DF8014B186008BDB1
:1015C8008003002008B5024B1B681B6B019308BD04
:1015D800D001060808B5024B1B68DB6E019308BDF5
:1015E800B801060808B5024B1B685B68019308BD83
:1015F8009C01060808B5024B1B681B69019308BDCE
:101608009C01060808B5024B1B685B69019308BD7D
:101618009C01060808B5024B1B681B68019308BDAE
:10162800B001060808B5024B1B685B68019308BD4A
:10163800B001060808B5024B1B689B68019308BDFA
:10164800B001060808B5024B1B68DB68019308BDAA
:10165800B001060808B5024B1B681B69019308BD59
:10166800B001060808B5024B1B681B6E019308BD44
:10167800AC01060808B5024B1B685B6E019308BDF8
:10168800AC01060808B5024B1B689B6E019308BDA8
:10169800AC01060808B5024B1B68DB6E019308BD58
:1016A800AC01060808B5024B1B681B6F019308BD07
:1016B800AC01060808B5024B1B685B6F019308BDB7
:1016C800AC01060808B5034B1B68D3F880300193BA
:1016D80008BD0000AC01060808B5024B1B681B6872
:1016E800019308BDA801060808B5024B1B685B6892
:1016F800019308BDA801060808B5024B1B68DB6901
:10170800019308BDB401060808B5024B1B681B6AA3
:10171800019308BDB401060808B5024B1B689B6914
:10172800019308BDC401060808B5024B1B685B6A33
:10173800019308BDC401060808B5024B1B689B6AE3
:10174800019308BDC401060808B5024B1B68DB6A93
:10175800019308BDC401060808B5024B1B681B6B42
:10176800019308BDC401060808B5024B1B685B6BF2
:10177800019308BDC401060808B5024B1B689B6BA2
:10178800019308BDC401060808B5024B1B681B6C11
:10179800019308BDC401060808B5024B1B681B6805
:1017A800019308BDD801060808B5024B1B681B69E0
:1017B800019308BDD801060808B5024B1B685B6990
:1017C800019308BDD801060808B5024B1B689B6940
:1017D800019308BDD801060808B5024B1B68DB69F0
:1017E800019308BDD801060808B5024B1B681B6A9F
:1017F800019308BDD801060808B5024B1B685B6851
:10180800019308BDA401060808B5024B1B685B6973
:10181800019308BDA401060808B5034B1B68D3F85B
:101828009030019308BD0000A401060808B5034BD9
:101838001B68D3F89C30019308BD0000A40106087A
:1018480008B5024B1B685B6A019308BDCC0106080A
:1018580008B5024B1B68DB6B019308BDCC01060879
:1018680008B5024B1B681B69019308BDC80106082F
:1018780008B5024B1B681B68019308BDA001060848
:1018880008B5024B1B685B68019308BDA0010608F8
:101898000021FFF7B9BF10B58368044613B10322CE
:1018A80001469847204610BD7047F8B506461546CC
:1018B8000C468F18BC4206D0336814F8011B9B688D
:1018C80030469847F6E72846F8BD0022007CFFF727
:1018D800C9BE0021007CFFF7CDBE0021007CFFF7C8
:1018E800D1BE0021007CFFF7D5BE0021007CFFF7A8
:1018F800D9BE10B50446FEF7CCFB204610BD00004B
:1019080010B5044608464FF47A73A360044B0021CF
:10191800207461602360FFF7D5FE204610BD00BF2C
:101928001C240A080021007CFFF7C4BE704710B5CC
:101938000446FEF7AEFB204610BDF8B50F4600F191
:101948000806051D002416F8011D0A22384600F075
:1019580082F8AE42044407D0002CF4D02E21384639
:1019680000F04CF80444EEE72046F8BD10B59DF8A9
:10197800084044EA032343EA024242EA016104239D
:101988004160037510BD000037B5044D05609DF832
:1019980018500095FFF7EAFF03B030BD44240A0849
:1019A800014A024B1A6070470B250A08840300207D
:1019B800F8B506460D468F180024BD420CD0336892
:1019C80015F8011B9B6830469847002801DB044442
:1019D800F3E7002C08BF04462046F8BD70B505465D
:1019E8000C46084649B100F0EDFC2B68024621463A
:1019F8002846BDE87040DB68184770BD03689B68DF
:101A08001847012A98BF0A2230B50B468BB000212F
:101A18008DF824100DF12304B3FBF2F505FB123306
:101A2800DBB2092B94BF30333733DBB2214604F8DD
:101A380001392B46002DEFD1FFF7D0FF0BB030BD99
:101A480010B422B90368C9B29B6810BC1847D2B257
:101A580010BCFFF7D6BFFFF7F3BF10B50446FFF77A
:101A68001AFF204610BD0000034800238360034A84
:101A7800034900F00FBB00BF880300206803002063
:101A8800631A0A08704710B50446FEF702FB2046A1
:101A980010BD000070B504460E46074B00250360D4
:101AA80040F80C5FFFF78EFD30462671FFF724FEE5
:101AB800A560204670BD00BF3C250A080079FFF7E5
:101AC80023BE00004FF69C7337B50D4C002563808C
:101AD8004FF6FF732846A3802570FFF78DFE02A8F6
:101AE80040F8045D2A462946FFF774FD019B1E2B2A
:101AF80004D10323237011236580A38003B030BD74
:101B080098030020024B1A68024B1A60704700BF06
:101B180000030020A0030020F8B585B2044628463B
:101B28000E46174600F00EFA60B102212846FFF76C
:101B380079FD022806D13A4631462046BDE8F840EC
:101B4800FFF7CABDF8BD38B585B20446284600F08F
:101B5800F9F950B102212846FFF764FD022804D1A3
:101B68002046BDE83840FFF7BFBD38BD7047417417
:101B78007047007CFFF708BE007CFFF7DDBD007CE6
:101B8800FFF7EABD007CFFF7DFBD007CFFF7ECBD87
:101B980010B50446FEF77DFA204610BD70B5457CA9
:101BA80004460E4625B9007CFFF7EEFD002805DD4A
:101BB8003146207CBDE87040FFF7B6BD284670BDB1
:101BC80010B5044608461146002262604FF47A7246
:101BD800A260054A20742260012262741A46FFF747
:101BE8009BFD204610BD00BF78250A08007CFFF742
:101BF800C3BD000038B50C4D296811F0010411D19E
:101C08002846FEF748FA68B1084A2146084B0948B1
:101C1800FFF7D6FF2846FEF743FA074A0749054863
:101C280000F038FA034838BD3C0400204004002086
:101C3800B8030020A403002068030020751B0A08CD
:101C48004174704770470021007CFFF7BDBD01213A
:101C5800007CFFF7B9BD007CFFF7AEBD007CFFF745
:101C6800A3BD38B50446007C0D46FFF7A5FD002846
:101C780001DC607C20B12946207CFFF7ADFD012006
:101C880038BD007CFFF7B0BD10B50446FEF701FA79
:101C9800204610BD10B50446002363604FF47A73E4
:101CA800A360054B08462360012321746374114621
:101CB800FFF772FD204610BDA8250A0810B5044696
:101CC8001422002100F04DFB054B20466360054BB4
:101CD800E36040F2011323818123238210BD00BFFA
:101CE80049050020C804002030B50E4D87B001A872
:101CF800FFF7E4FF296811F0010410D12846FEF728
:101D0800CAF960B101AA21460748FFF7C3FF284670
:101D1800FEF7C6F9054A0649034800F0BBF9024830
:101D280007B030BDC40400204C0600206803002022
:101D38004D1C0A0810B504461422002100F011FBBE
:101D4800054B20466360054BE36040F20113238195
:101D58008123238210BD00BFFC06002064060020FA
:101D680010B50E4C86B001A8FFF7E4FF2368DB0727
:101D780010D42046FEF78FF960B101AA0121084866
:101D8800FFF788FF2046FEF78BF9064A0649044804
:101D980000F080F9024806B010BD00BF60060020C0
:101DA800E8060020680300204D1C0A08704700223E
:101DB80011461046FFF754BD0348044B044A054931
:101DC800036000F067B900BF00080020D8250A08A2
:101DD80068030020B51D0A087047000008B5144BB9
:101DE80033B1FFF781FF03681B699847002816DCA9
:101DF800104B33B1FFF7FEFE03681B6998470028B4
:101E080010DC0D4B0BB1AFF300800C4B7BB1FFF72F
:101E1800A7FF03681B699847002806DC08BDAFF3D5
:101E28000080E5E7AFF30080EBE7AFF3008008BD83
:101E3800000000000000000000000000000000009A
:101E480008B5FFF7CBFFFFF7DDFB014B186008BDB6
:101E58000C0800200248034A0349121A00F076BA17
:101E6800004002400440024080260A0807B50023CB
:101E780000931A466FF07701FFF7D8FC03B05DF8BE
:101E880004FB000007B543880A2B08D0502B09D162
:101E9800094B1B683BB103B05DF804EB1847FFF72B
:101EA800E5FF06E0002300931A466FF07701FFF77D
:101EB800BDFC03B05DF804FB0408002038B5104CE5
:101EC800104D2368AB42104B0CBF012200221A7040
:101ED80002D0FFF7BFFF2560FFF784FB00F04AFA46
:101EE8000A4B1BB1FFF77EFBAFF3008000210748C8
:101EF800FFF7AEFCBDE8384000210548FFF78CBC71
:101F0800004002401E1C279A08080020000000001C
:101F18008D1E0A0808B5024B1B681B68019308BD93
:101F28009C01020808B5024B1B685B68019308BD59
:101F38009C01020808B5024B1B689B68019308BD09
:101F48009C01020810B504460F48FFF7B7FD28B1F9
:101F5800A4F10D03022B01D8002010BD00F040F8B9
:101F6800FFF7E0FC08B1012CF6D9FFF743FEFFF7B5
:101F78003DFE18B1A4F11203012BEDD9172C8CBF2B
:101F88000020012010BD00BF40080020172838B5E8
:101F980004460D460AD8FF2908D0FFF7D3FF28B119
:101FA80029462046BDE83840FFF744BB38BD38B560
:101FB80004460D46FFF746FBFF2810D0062804D834
:101FC8004D2323FA00F0C30709D42046FFF7BAFFD0
:101FD80028B129462046BDE83840FFF73BBB38BD4D
:101FE80038B50B4D296811F001040FD12846FEF7CA
:101FF80052F858B121460748FFF782FC2846FEF7F9
:102008004FF8054A0549034800F044F8014838BD2F
:10201800100800201408002068030020B1180A08DE
:1020280013B5084C00231A46194600932046FFF7BB
:10203800ABFC2046044A054902B0BDE8104000F058
:1020480029B800BF280800206803002035190A08AD
:1020580070B50C4C0C4E0D4D00212046FFF71AFDB3
:1020680020460B4C3246294600F014F80121204640
:10207800FFF710FD324629462046BDE8704000F0C3
:1020880009B800BF40080020680300208D1A0A081C
:10209800500800200B460146184600F049B90000D8
:1020A800244B1A68D0075CBF01221A60224B1A68B9
:1020B800D1075CBF01221A60204B1A68D2075CBFA7
:1020C80001221A601E4B1A68D0075CBF01221A60F1
:1020D8001C4B1A68D1075CBF01221A601A4B1A6898
:1020E800D2075CBF01221A60184B1A68D0075CBF80
:1020F80001221A60164B1A68D1075CBF01221A60C8
:10210800144B1A68D2075CBF01221A60124B1A6876
:10211800D0075CBF01221A60104B1A68D1075CBF58
:1021280001221A600E4B1A68D2075CBF01221A609E
:10213800704700BF8C080020880800208408002011
:10214800800800207C0800207808002074080020FF
:10215800700800206C08002068080020640800202F
:1021680060080020184B1A68D1075CBF01221A606A
:10217800164B1A68D2075CBF01221A60144B1A6802
:10218800D0075CBF01221A60124B1A68D1075CBFE6
:1021980001221A60104B1A68D2075CBF01221A602C
:1021A8000E4B1A68D0075CBF01221A600C4B1A68E4
:1021B800D1075CBF01221A600A4B1A68D2075CBFBC
:1021C80001221A60704700BFAC080020A808002050
:1021D800A4080020A00800209C08002098080020DF
:1021E8009408002090080020184B1A68D1075CBF9B
:1021F80001221A60164B1A68D2075CBF01221A60C6
:10220800144B1A68D0075CBF01221A60124B1A6877
:10221800D1075CBF01221A60104B1A68D2075CBF55
:1022280001221A600E4B1A68D0075CBF01221A609F
:102238000C4B1A68D1075CBF01221A600A4B1A6856
:10224800D2075CBF01221A60704700BFCC0800208B
:10225800C8080020C4080020C0080020BC080020CE
:10226800B8080020B4080020B0080020244B1A68E1
:10227800D0075CBF01221A60224B1A68D1075CBFE5
:1022880001221A60204B1A68D2075CBF01221A602B
:102298001E4B1A68D0075CBF01221A601C4B1A68D3
:1022A800D1075CBF01221A601A4B1A68D2075CBFBB
:1022B80001221A60184B1A68D0075CBF01221A6005
:1022C800164B1A68D1075CBF01221A60144B1A68B2
:1022D800D2075CBF01221A60124B1A68D0075CBF94
:1022E80001221A60104B1A68D1075CBF01221A60DC
:1022F8000E4B1A68D2075CBF01221A60704700BFF4
:10230800FC080020F8080020F4080020F00800204D
:10231800EC080020E8080020E4080020E00800207D
:10232800DC080020D8080020D4080020D0080020AD
:1023380010B5054C13462CB10A4601460220AFF3EE
:10234800008010BD204610BD0000000010B5431EDF
:102358000A44914204D011F8014B03F8014FF8E701
:1023680010BD03460244934202D003F8011BFAE76A
:102378007047000038B5124B05461C68A36BD3B9EB
:102388001820FFF775FA43F20E33A06303804AF66C
:10239800CD33438041F2342383804EF26D63C38092
:1023A8004DF6EC630381052343810B2383810122CE
:1023B8000023C0E90423A36B00221D615A6138BDC4
:1023C80064030020034613F8012B002AFBD1181AD6
:1023D800013870471D000A085D000A0889000A08CC
:1023E8008D000A08000000006C696768746E696EE9
:1023F800675F73636F7265002C01000018000000AE
:10240800F40100002C010000500000000000000052
:1024180000000000B1180A08FB180A08D3180A08B7
:10242800B3180A08DB180A08E3180A08EB180A08A0
:10243800F3180A08000000000000000043190A0809
:1024480035190A0837190A0866006C6E00666E00AE
:10245800636F64650064657461696C000D0A00252A
:102468003031307520005D20002564002C200028C4
:10247800293A2000205B00636F6465203D20002519
:10248800690064657461696C73203D200062617540
:10249800640053657269616C0055534253657269F3
:1024A800616C31007479706500706172616D0063F0
:1024B8006D6400696400686E64007374726D006610
:1024C800696C74006C766C0061646448616E646C5D
:1024D80065720072656D6F766548616E646C6572D1
:1024E80000656E756D48616E646C657273004A5361
:1024F8004F4E53747265616D4C6F6748616E646CC2
:10250800657200617070006E6F6E65007472616351
:102518006500696E666F007761726E006572726F32
:10252800720070616E696300616C6C0000000000ED
:10253800000000008D1A0A088F1A0A085A00252B75
:102548003033643A253032750025592D256D2D25F7
:10255800645425483A254D3A2553257A006173631A
:1025680074696D65000000000000000000000000B4
:10257800751B0A08991B0A08A51B0A08B9190A0835
:10258800811B0A088D1B0A08871B0A08931B0A0867
:10259800771B0A087B1B0A080000000000000000E7
:1025A8004D1C0A08911C0A086B1C0A08B9190A086C
:1025B800651C0A084F1C0A08571C0A088B1C0A08C5
:1025C8005F1C0A08491C0A080000000000000000FF
:1025D800B71D0A080000000000000000000000000D
:1025E80000000000000000000000000000000000E3
:1025F80000000000000000000000000000000000D3
:1026080000000000000000000000000000000000C2
:1026180000000000000000000000000000000000B2
:1026280000000000000000000000000000000000A2
:10263800000000004300000085020A08B9150A08D6
:10264800A9190A08711A0A08CD1A0A080D1B0A08DE
:10265800C11D0A0829200A0859200A08A9200A08C1
:102668006D210A08F1210A0875220A0800000000F5
:0826780000000000000000005A
:042680000000000056
:1026840065250A0800000000DC250A08FC250A0864
:102694001C260A08000000000000000000000000E2
:1026A400000000003C260A080000000000000000B2
:1026B4000000000000000000000000000000000016
:1026C4000000000000000000000000000000000006
:1026D40000000000000000000000000000000000F6
:0826E4000000000004030020C7
:1026EC00FFFFFFFFE82402000000010203040506BF
:1026FC000708090A0B0C0D0E0F10111213141516E6
:0C270C001718191A1B1C1D1E1F20280086
:0427180078563412A9
:04000005080A0018CD
:00000001FF
